{
  "contractName": "FuckPutin",
  "abi": [
    {
      "inputs": [
        {
          "internalType": "string",
          "name": "_name",
          "type": "string"
        },
        {
          "internalType": "string",
          "name": "_symbol",
          "type": "string"
        },
        {
          "internalType": "uint8",
          "name": "_decimals",
          "type": "uint8"
        },
        {
          "internalType": "bytes32",
          "name": "_merkleRoot",
          "type": "bytes32"
        }
      ],
      "stateMutability": "nonpayable",
      "type": "constructor"
    },
    {
      "inputs": [],
      "name": "AlreadyClaimed",
      "type": "error"
    },
    {
      "inputs": [],
      "name": "NotInMerkle",
      "type": "error"
    },
    {
      "anonymous": false,
      "inputs": [
        {
          "indexed": true,
          "internalType": "address",
          "name": "owner",
          "type": "address"
        },
        {
          "indexed": true,
          "internalType": "address",
          "name": "spender",
          "type": "address"
        },
        {
          "indexed": false,
          "internalType": "uint256",
          "name": "amount",
          "type": "uint256"
        }
      ],
      "name": "Approval",
      "type": "event"
    },
    {
      "anonymous": false,
      "inputs": [
        {
          "indexed": true,
          "internalType": "address",
          "name": "to",
          "type": "address"
        },
        {
          "indexed": false,
          "internalType": "uint256",
          "name": "amount",
          "type": "uint256"
        }
      ],
      "name": "Claim",
      "type": "event"
    },
    {
      "anonymous": false,
      "inputs": [
        {
          "indexed": true,
          "internalType": "address",
          "name": "from",
          "type": "address"
        },
        {
          "indexed": true,
          "internalType": "address",
          "name": "to",
          "type": "address"
        },
        {
          "indexed": false,
          "internalType": "uint256",
          "name": "amount",
          "type": "uint256"
        }
      ],
      "name": "Transfer",
      "type": "event"
    },
    {
      "inputs": [],
      "name": "DOMAIN_SEPARATOR",
      "outputs": [
        {
          "internalType": "bytes32",
          "name": "",
          "type": "bytes32"
        }
      ],
      "stateMutability": "view",
      "type": "function",
      "constant": true
    },
    {
      "inputs": [
        {
          "internalType": "address",
          "name": "",
          "type": "address"
        },
        {
          "internalType": "address",
          "name": "",
          "type": "address"
        }
      ],
      "name": "allowance",
      "outputs": [
        {
          "internalType": "uint256",
          "name": "",
          "type": "uint256"
        }
      ],
      "stateMutability": "view",
      "type": "function",
      "constant": true
    },
    {
      "inputs": [
        {
          "internalType": "address",
          "name": "spender",
          "type": "address"
        },
        {
          "internalType": "uint256",
          "name": "amount",
          "type": "uint256"
        }
      ],
      "name": "approve",
      "outputs": [
        {
          "internalType": "bool",
          "name": "",
          "type": "bool"
        }
      ],
      "stateMutability": "nonpayable",
      "type": "function"
    },
    {
      "inputs": [
        {
          "internalType": "address",
          "name": "",
          "type": "address"
        }
      ],
      "name": "balanceOf",
      "outputs": [
        {
          "internalType": "uint256",
          "name": "",
          "type": "uint256"
        }
      ],
      "stateMutability": "view",
      "type": "function",
      "constant": true
    },
    {
      "inputs": [],
      "name": "decimals",
      "outputs": [
        {
          "internalType": "uint8",
          "name": "",
          "type": "uint8"
        }
      ],
      "stateMutability": "view",
      "type": "function",
      "constant": true
    },
    {
      "inputs": [
        {
          "internalType": "address",
          "name": "",
          "type": "address"
        }
      ],
      "name": "hasClaimed",
      "outputs": [
        {
          "internalType": "bool",
          "name": "",
          "type": "bool"
        }
      ],
      "stateMutability": "view",
      "type": "function",
      "constant": true
    },
    {
      "inputs": [],
      "name": "merkleRoot",
      "outputs": [
        {
          "internalType": "bytes32",
          "name": "",
          "type": "bytes32"
        }
      ],
      "stateMutability": "view",
      "type": "function",
      "constant": true
    },
    {
      "inputs": [],
      "name": "mintEndsAt",
      "outputs": [
        {
          "internalType": "uint256",
          "name": "",
          "type": "uint256"
        }
      ],
      "stateMutability": "view",
      "type": "function",
      "constant": true
    },
    {
      "inputs": [],
      "name": "name",
      "outputs": [
        {
          "internalType": "string",
          "name": "",
          "type": "string"
        }
      ],
      "stateMutability": "view",
      "type": "function",
      "constant": true
    },
    {
      "inputs": [
        {
          "internalType": "address",
          "name": "",
          "type": "address"
        }
      ],
      "name": "nonces",
      "outputs": [
        {
          "internalType": "uint256",
          "name": "",
          "type": "uint256"
        }
      ],
      "stateMutability": "view",
      "type": "function",
      "constant": true
    },
    {
      "inputs": [
        {
          "internalType": "address",
          "name": "owner",
          "type": "address"
        },
        {
          "internalType": "address",
          "name": "spender",
          "type": "address"
        },
        {
          "internalType": "uint256",
          "name": "value",
          "type": "uint256"
        },
        {
          "internalType": "uint256",
          "name": "deadline",
          "type": "uint256"
        },
        {
          "internalType": "uint8",
          "name": "v",
          "type": "uint8"
        },
        {
          "internalType": "bytes32",
          "name": "r",
          "type": "bytes32"
        },
        {
          "internalType": "bytes32",
          "name": "s",
          "type": "bytes32"
        }
      ],
      "name": "permit",
      "outputs": [],
      "stateMutability": "nonpayable",
      "type": "function"
    },
    {
      "inputs": [],
      "name": "symbol",
      "outputs": [
        {
          "internalType": "string",
          "name": "",
          "type": "string"
        }
      ],
      "stateMutability": "view",
      "type": "function",
      "constant": true
    },
    {
      "inputs": [],
      "name": "totalSupply",
      "outputs": [
        {
          "internalType": "uint256",
          "name": "",
          "type": "uint256"
        }
      ],
      "stateMutability": "view",
      "type": "function",
      "constant": true
    },
    {
      "inputs": [
        {
          "internalType": "address",
          "name": "to",
          "type": "address"
        },
        {
          "internalType": "uint256",
          "name": "amount",
          "type": "uint256"
        }
      ],
      "name": "transfer",
      "outputs": [
        {
          "internalType": "bool",
          "name": "",
          "type": "bool"
        }
      ],
      "stateMutability": "nonpayable",
      "type": "function"
    },
    {
      "inputs": [
        {
          "internalType": "address",
          "name": "from",
          "type": "address"
        },
        {
          "internalType": "address",
          "name": "to",
          "type": "address"
        },
        {
          "internalType": "uint256",
          "name": "amount",
          "type": "uint256"
        }
      ],
      "name": "transferFrom",
      "outputs": [
        {
          "internalType": "bool",
          "name": "",
          "type": "bool"
        }
      ],
      "stateMutability": "nonpayable",
      "type": "function"
    },
    {
      "inputs": [
        {
          "internalType": "address",
          "name": "to",
          "type": "address"
        },
        {
          "internalType": "uint256",
          "name": "amount",
          "type": "uint256"
        },
        {
          "internalType": "bytes32[]",
          "name": "proof",
          "type": "bytes32[]"
        }
      ],
      "name": "claim",
      "outputs": [],
      "stateMutability": "nonpayable",
      "type": "function"
    }
  ],
  "bytecode": "0x6101006040526362366e806007553480156200001a57600080fd5b506040516200264c3803806200264c8339818101604052810190620000409190620004fd565b83838382600090805190602001906200005b92919062000237565b5081600190805190602001906200007492919062000237565b508060ff1660808160ff16815250504660a081815250506200009b620000d360201b60201c565b60c081815250505050508060e08181525050620000c9336934f086f3b33b684000006200016360201b60201c565b505050506200084d565b60007f8b73c3c69bb8fe3d512ecc4cf759cc79239f7b179b0ffacaa9a75d522b39400f6000604051620001079190620006bd565b60405180910390207fc89efdaa54c0f20c7adf612882df0950f5a951637e0307cdcb4c672f298b8bc646306040516020016200014895949392919062000747565b60405160208183030381529060405280519060200120905090565b8060026000828254620001779190620007d3565b9250508190555080600360008473ffffffffffffffffffffffffffffffffffffffff1673ffffffffffffffffffffffffffffffffffffffff168152602001908152602001600020600082825401925050819055508173ffffffffffffffffffffffffffffffffffffffff16600073ffffffffffffffffffffffffffffffffffffffff167fddf252ad1be2c89b69c2b068fc378daa952ba7f163c4a11628f55a4df523b3ef836040516200022b919062000830565b60405180910390a35050565b8280546200024590620005dc565b90600052602060002090601f016020900481019282620002695760008555620002b5565b82601f106200028457805160ff1916838001178555620002b5565b82800160010185558215620002b5579182015b82811115620002b457825182559160200191906001019062000297565b5b509050620002c49190620002c8565b5090565b5b80821115620002e3576000816000905550600101620002c9565b5090565b6000604051905090565b600080fd5b600080fd5b600080fd5b600080fd5b6000601f19601f8301169050919050565b7f4e487b7100000000000000000000000000000000000000000000000000000000600052604160045260246000fd5b620003508262000305565b810181811067ffffffffffffffff8211171562000372576200037162000316565b5b80604052505050565b600062000387620002e7565b905062000395828262000345565b919050565b600067ffffffffffffffff821115620003b857620003b762000316565b5b620003c38262000305565b9050602081019050919050565b60005b83811015620003f0578082015181840152602081019050620003d3565b8381111562000400576000848401525b50505050565b60006200041d62000417846200039a565b6200037b565b9050828152602081018484840111156200043c576200043b62000300565b5b62000449848285620003d0565b509392505050565b600082601f830112620004695762000468620002fb565b5b81516200047b84826020860162000406565b91505092915050565b600060ff82169050919050565b6200049c8162000484565b8114620004a857600080fd5b50565b600081519050620004bc8162000491565b92915050565b6000819050919050565b620004d781620004c2565b8114620004e357600080fd5b50565b600081519050620004f781620004cc565b92915050565b600080600080608085870312156200051a5762000519620002f1565b5b600085015167ffffffffffffffff8111156200053b576200053a620002f6565b5b620005498782880162000451565b945050602085015167ffffffffffffffff8111156200056d576200056c620002f6565b5b6200057b8782880162000451565b93505060406200058e87828801620004ab565b9250506060620005a187828801620004e6565b91505092959194509250565b7f4e487b7100000000000000000000000000000000000000000000000000000000600052602260045260246000fd5b60006002820490506001821680620005f557607f821691505b602082108114156200060c576200060b620005ad565b5b50919050565b600081905092915050565b60008190508160005260206000209050919050565b600081546200064181620005dc565b6200064d818662000612565b945060018216600081146200066b57600181146200067d57620006b4565b60ff19831686528186019350620006b4565b62000688856200061d565b60005b83811015620006ac578154818901526001820191506020810190506200068b565b838801955050505b50505092915050565b6000620006cb828462000632565b915081905092915050565b620006e181620004c2565b82525050565b6000819050919050565b620006fc81620006e7565b82525050565b600073ffffffffffffffffffffffffffffffffffffffff82169050919050565b60006200072f8262000702565b9050919050565b620007418162000722565b82525050565b600060a0820190506200075e6000830188620006d6565b6200076d6020830187620006d6565b6200077c6040830186620006d6565b6200078b6060830185620006f1565b6200079a608083018462000736565b9695505050505050565b7f4e487b7100000000000000000000000000000000000000000000000000000000600052601160045260246000fd5b6000620007e082620006e7565b9150620007ed83620006e7565b9250827fffffffffffffffffffffffffffffffffffffffffffffffffffffffffffffffff03821115620008255762000824620007a4565b5b828201905092915050565b6000602082019050620008476000830184620006f1565b92915050565b60805160a05160c05160e051611dbe6200088e600039600081816107310152610912015260006107af0152600061077b015260006107550152611dbe6000f3fe608060405234801561001057600080fd5b50600436106101005760003560e01c806370a0823111610097578063a9059cbb11610066578063a9059cbb146102c5578063d505accf146102f5578063dd62ed3e14610311578063f7d0a93b1461034157610100565b806370a082311461021757806373b2e80e146102475780637ecebe001461027757806395d89b41146102a757610100565b80632eb4a7ab116100d35780632eb4a7ab146101a1578063313ce567146101bf5780633644e515146101dd5780633d13f874146101fb57610100565b806306fdde0314610105578063095ea7b31461012357806318160ddd1461015357806323b872dd14610171575b600080fd5b61010d61035f565b60405161011a9190611298565b60405180910390f35b61013d60048036038101906101389190611358565b6103ed565b60405161014a91906113b3565b60405180910390f35b61015b6104df565b60405161016891906113dd565b60405180910390f35b61018b600480360381019061018691906113f8565b6104e5565b60405161019891906113b3565b60405180910390f35b6101a961072f565b6040516101b69190611464565b60405180910390f35b6101c7610753565b6040516101d4919061149b565b60405180910390f35b6101e5610777565b6040516101f29190611464565b60405180910390f35b6102156004803603810190610210919061151b565b6107d4565b005b610231600480360381019061022c919061158f565b610ae4565b60405161023e91906113dd565b60405180910390f35b610261600480360381019061025c919061158f565b610afc565b60405161026e91906113b3565b60405180910390f35b610291600480360381019061028c919061158f565b610b1c565b60405161029e91906113dd565b60405180910390f35b6102af610b34565b6040516102bc9190611298565b60405180910390f35b6102df60048036038101906102da9190611358565b610bc2565b6040516102ec91906113b3565b60405180910390f35b61030f600480360381019061030a9190611614565b610cd6565b005b61032b600480360381019061032691906116b6565b610fd5565b60405161033891906113dd565b60405180910390f35b610349610ffa565b60405161035691906113dd565b60405180910390f35b6000805461036c90611725565b80601f016020809104026020016040519081016040528092919081815260200182805461039890611725565b80156103e55780601f106103ba576101008083540402835291602001916103e5565b820191906000526020600020905b8154815290600101906020018083116103c857829003601f168201915b505050505081565b600081600460003373ffffffffffffffffffffffffffffffffffffffff1673ffffffffffffffffffffffffffffffffffffffff16815260200190815260200160002060008573ffffffffffffffffffffffffffffffffffffffff1673ffffffffffffffffffffffffffffffffffffffff168152602001908152602001600020819055508273ffffffffffffffffffffffffffffffffffffffff163373ffffffffffffffffffffffffffffffffffffffff167f8c5be1e5ebec7d5bd14f71427d1e84f3dd0314c0f7b2291e5b200ac8c7c3b925846040516104cd91906113dd565b60405180910390a36001905092915050565b60025481565b600080600460008673ffffffffffffffffffffffffffffffffffffffff1673ffffffffffffffffffffffffffffffffffffffff16815260200190815260200160002060003373ffffffffffffffffffffffffffffffffffffffff1673ffffffffffffffffffffffffffffffffffffffff1681526020019081526020016000205490507fffffffffffffffffffffffffffffffffffffffffffffffffffffffffffffffff811461061b57828161059a9190611786565b600460008773ffffffffffffffffffffffffffffffffffffffff1673ffffffffffffffffffffffffffffffffffffffff16815260200190815260200160002060003373ffffffffffffffffffffffffffffffffffffffff1673ffffffffffffffffffffffffffffffffffffffff168152602001908152602001600020819055505b82600360008773ffffffffffffffffffffffffffffffffffffffff1673ffffffffffffffffffffffffffffffffffffffff168152602001908152602001600020600082825461066a9190611786565b9250508190555082600360008673ffffffffffffffffffffffffffffffffffffffff1673ffffffffffffffffffffffffffffffffffffffff168152602001908152602001600020600082825401925050819055508373ffffffffffffffffffffffffffffffffffffffff168573ffffffffffffffffffffffffffffffffffffffff167fddf252ad1be2c89b69c2b068fc378daa952ba7f163c4a11628f55a4df523b3ef8560405161071b91906113dd565b60405180910390a360019150509392505050565b7f000000000000000000000000000000000000000000000000000000000000000081565b7f000000000000000000000000000000000000000000000000000000000000000081565b60007f000000000000000000000000000000000000000000000000000000000000000046146107ad576107a8611000565b6107cf565b7f00000000000000000000000000000000000000000000000000000000000000005b905090565b6007544210610818576040517f08c379a000000000000000000000000000000000000000000000000000000000815260040161080f90611806565b60405180910390fd5b600660008573ffffffffffffffffffffffffffffffffffffffff1673ffffffffffffffffffffffffffffffffffffffff16815260200190815260200160002060009054906101000a900460ff161561089c576040517f646cf55800000000000000000000000000000000000000000000000000000000815260040160405180910390fd5b600084846040516020016108b192919061188f565b6040516020818303038152906040528051906020012090506000610937848480806020026020016040519081016040528093929190818152602001838360200280828437600081840152601f19601f820116905080830192505050505050507f00000000000000000000000000000000000000000000000000000000000000008461108c565b905080610970576040517f8a585be200000000000000000000000000000000000000000000000000000000815260040160405180910390fd5b6001600660008873ffffffffffffffffffffffffffffffffffffffff1673ffffffffffffffffffffffffffffffffffffffff16815260200190815260200160002060006101000a81548160ff021916908315150217905550600060646005876109d991906118bb565b6109e39190611944565b905060006064605f886109f691906118bb565b610a009190611944565b9050610a0c88826110a3565b8773ffffffffffffffffffffffffffffffffffffffff167f47cee97cb7acd717b3c0aa1435d004cd5b3c8c57d70dbceb4e4458bbd60e39d482604051610a5291906113dd565b60405180910390a2610a7873165cd37b4c644c2921454429e7f9358d18a45e14836110a3565b73165cd37b4c644c2921454429e7f9358d18a45e1473ffffffffffffffffffffffffffffffffffffffff167f47cee97cb7acd717b3c0aa1435d004cd5b3c8c57d70dbceb4e4458bbd60e39d483604051610ad291906113dd565b60405180910390a25050505050505050565b60036020528060005260406000206000915090505481565b60066020528060005260406000206000915054906101000a900460ff1681565b60056020528060005260406000206000915090505481565b60018054610b4190611725565b80601f0160208091040260200160405190810160405280929190818152602001828054610b6d90611725565b8015610bba5780601f10610b8f57610100808354040283529160200191610bba565b820191906000526020600020905b815481529060010190602001808311610b9d57829003601f168201915b505050505081565b600081600360003373ffffffffffffffffffffffffffffffffffffffff1673ffffffffffffffffffffffffffffffffffffffff1681526020019081526020016000206000828254610c139190611786565b9250508190555081600360008573ffffffffffffffffffffffffffffffffffffffff1673ffffffffffffffffffffffffffffffffffffffff168152602001908152602001600020600082825401925050819055508273ffffffffffffffffffffffffffffffffffffffff163373ffffffffffffffffffffffffffffffffffffffff167fddf252ad1be2c89b69c2b068fc378daa952ba7f163c4a11628f55a4df523b3ef84604051610cc491906113dd565b60405180910390a36001905092915050565b42841015610d19576040517f08c379a0000000000000000000000000000000000000000000000000000000008152600401610d10906119c1565b60405180910390fd5b6000610d23610777565b7f6e71edae12b1b97f4d1f60370fef10105fa2faae0126114a169c64845d6126c9898989600560008e73ffffffffffffffffffffffffffffffffffffffff1673ffffffffffffffffffffffffffffffffffffffff1681526020019081526020016000206000815480929190600101919050558a604051602001610dab969594939291906119f0565b60405160208183030381529060405280519060200120604051602001610dd2929190611ac9565b604051602081830303815290604052805190602001209050600060018286868660405160008152602001604052604051610e0f9493929190611b00565b6020604051602081039080840390855afa158015610e31573d6000803e3d6000fd5b505050602060405103519050600073ffffffffffffffffffffffffffffffffffffffff168173ffffffffffffffffffffffffffffffffffffffff1614158015610ea557508873ffffffffffffffffffffffffffffffffffffffff168173ffffffffffffffffffffffffffffffffffffffff16145b610ee4576040517f08c379a0000000000000000000000000000000000000000000000000000000008152600401610edb90611b91565b60405180910390fd5b86600460008373ffffffffffffffffffffffffffffffffffffffff1673ffffffffffffffffffffffffffffffffffffffff16815260200190815260200160002060008a73ffffffffffffffffffffffffffffffffffffffff1673ffffffffffffffffffffffffffffffffffffffff1681526020019081526020016000208190555050508573ffffffffffffffffffffffffffffffffffffffff168773ffffffffffffffffffffffffffffffffffffffff167f8c5be1e5ebec7d5bd14f71427d1e84f3dd0314c0f7b2291e5b200ac8c7c3b92587604051610fc491906113dd565b60405180910390a350505050505050565b6004602052816000526040600020602052806000526040600020600091509150505481565b60075481565b60007f8b73c3c69bb8fe3d512ecc4cf759cc79239f7b179b0ffacaa9a75d522b39400f60006040516110329190611c50565b60405180910390207fc89efdaa54c0f20c7adf612882df0950f5a951637e0307cdcb4c672f298b8bc64630604051602001611071959493929190611c67565b60405160208183030381529060405280519060200120905090565b6000826110998584611173565b1490509392505050565b80600260008282546110b59190611cba565b9250508190555080600360008473ffffffffffffffffffffffffffffffffffffffff1673ffffffffffffffffffffffffffffffffffffffff168152602001908152602001600020600082825401925050819055508173ffffffffffffffffffffffffffffffffffffffff16600073ffffffffffffffffffffffffffffffffffffffff167fddf252ad1be2c89b69c2b068fc378daa952ba7f163c4a11628f55a4df523b3ef8360405161116791906113dd565b60405180910390a35050565b60008082905060005b84518110156111dd57600085828151811061119a57611199611d10565b5b602002602001015190508083116111bc576111b583826111e8565b92506111c9565b6111c681846111e8565b92505b5080806111d590611d3f565b91505061117c565b508091505092915050565b600082600052816020526040600020905092915050565b600081519050919050565b600082825260208201905092915050565b60005b8381101561123957808201518184015260208101905061121e565b83811115611248576000848401525b50505050565b6000601f19601f8301169050919050565b600061126a826111ff565b611274818561120a565b935061128481856020860161121b565b61128d8161124e565b840191505092915050565b600060208201905081810360008301526112b2818461125f565b905092915050565b600080fd5b600080fd5b600073ffffffffffffffffffffffffffffffffffffffff82169050919050565b60006112ef826112c4565b9050919050565b6112ff816112e4565b811461130a57600080fd5b50565b60008135905061131c816112f6565b92915050565b6000819050919050565b61133581611322565b811461134057600080fd5b50565b6000813590506113528161132c565b92915050565b6000806040838503121561136f5761136e6112ba565b5b600061137d8582860161130d565b925050602061138e85828601611343565b9150509250929050565b60008115159050919050565b6113ad81611398565b82525050565b60006020820190506113c860008301846113a4565b92915050565b6113d781611322565b82525050565b60006020820190506113f260008301846113ce565b92915050565b600080600060608486031215611411576114106112ba565b5b600061141f8682870161130d565b93505060206114308682870161130d565b925050604061144186828701611343565b9150509250925092565b6000819050919050565b61145e8161144b565b82525050565b60006020820190506114796000830184611455565b92915050565b600060ff82169050919050565b6114958161147f565b82525050565b60006020820190506114b0600083018461148c565b92915050565b600080fd5b600080fd5b600080fd5b60008083601f8401126114db576114da6114b6565b5b8235905067ffffffffffffffff8111156114f8576114f76114bb565b5b602083019150836020820283011115611514576115136114c0565b5b9250929050565b60008060008060608587031215611535576115346112ba565b5b60006115438782880161130d565b945050602061155487828801611343565b935050604085013567ffffffffffffffff811115611575576115746112bf565b5b611581878288016114c5565b925092505092959194509250565b6000602082840312156115a5576115a46112ba565b5b60006115b38482850161130d565b91505092915050565b6115c58161147f565b81146115d057600080fd5b50565b6000813590506115e2816115bc565b92915050565b6115f18161144b565b81146115fc57600080fd5b50565b60008135905061160e816115e8565b92915050565b600080600080600080600060e0888a031215611633576116326112ba565b5b60006116418a828b0161130d565b97505060206116528a828b0161130d565b96505060406116638a828b01611343565b95505060606116748a828b01611343565b94505060806116858a828b016115d3565b93505060a06116968a828b016115ff565b92505060c06116a78a828b016115ff565b91505092959891949750929550565b600080604083850312156116cd576116cc6112ba565b5b60006116db8582860161130d565b92505060206116ec8582860161130d565b9150509250929050565b7f4e487b7100000000000000000000000000000000000000000000000000000000600052602260045260246000fd5b6000600282049050600182168061173d57607f821691505b60208210811415611751576117506116f6565b5b50919050565b7f4e487b7100000000000000000000000000000000000000000000000000000000600052601160045260246000fd5b600061179182611322565b915061179c83611322565b9250828210156117af576117ae611757565b5b828203905092915050565b7f4d696e74206973206e6f74206163746976650000000000000000000000000000600082015250565b60006117f060128361120a565b91506117fb826117ba565b602082019050919050565b6000602082019050818103600083015261181f816117e3565b9050919050565b60008160601b9050919050565b600061183e82611826565b9050919050565b600061185082611833565b9050919050565b611868611863826112e4565b611845565b82525050565b6000819050919050565b61188961188482611322565b61186e565b82525050565b600061189b8285611857565b6014820191506118ab8284611878565b6020820191508190509392505050565b60006118c682611322565b91506118d183611322565b9250817fffffffffffffffffffffffffffffffffffffffffffffffffffffffffffffffff048311821515161561190a57611909611757565b5b828202905092915050565b7f4e487b7100000000000000000000000000000000000000000000000000000000600052601260045260246000fd5b600061194f82611322565b915061195a83611322565b92508261196a57611969611915565b5b828204905092915050565b7f5045524d49545f444541444c494e455f45585049524544000000000000000000600082015250565b60006119ab60178361120a565b91506119b682611975565b602082019050919050565b600060208201905081810360008301526119da8161199e565b9050919050565b6119ea816112e4565b82525050565b600060c082019050611a056000830189611455565b611a1260208301886119e1565b611a1f60408301876119e1565b611a2c60608301866113ce565b611a3960808301856113ce565b611a4660a08301846113ce565b979650505050505050565b600081905092915050565b7f1901000000000000000000000000000000000000000000000000000000000000600082015250565b6000611a92600283611a51565b9150611a9d82611a5c565b600282019050919050565b6000819050919050565b611ac3611abe8261144b565b611aa8565b82525050565b6000611ad482611a85565b9150611ae08285611ab2565b602082019150611af08284611ab2565b6020820191508190509392505050565b6000608082019050611b156000830187611455565b611b22602083018661148c565b611b2f6040830185611455565b611b3c6060830184611455565b95945050505050565b7f494e56414c49445f5349474e4552000000000000000000000000000000000000600082015250565b6000611b7b600e8361120a565b9150611b8682611b45565b602082019050919050565b60006020820190508181036000830152611baa81611b6e565b9050919050565b600081905092915050565b60008190508160005260206000209050919050565b60008154611bde81611725565b611be88186611bb1565b94506001821660008114611c035760018114611c1457611c47565b60ff19831686528186019350611c47565b611c1d85611bbc565b60005b83811015611c3f57815481890152600182019150602081019050611c20565b838801955050505b50505092915050565b6000611c5c8284611bd1565b915081905092915050565b600060a082019050611c7c6000830188611455565b611c896020830187611455565b611c966040830186611455565b611ca360608301856113ce565b611cb060808301846119e1565b9695505050505050565b6000611cc582611322565b9150611cd083611322565b9250827fffffffffffffffffffffffffffffffffffffffffffffffffffffffffffffffff03821115611d0557611d04611757565b5b828201905092915050565b7f4e487b7100000000000000000000000000000000000000000000000000000000600052603260045260246000fd5b6000611d4a82611322565b91507fffffffffffffffffffffffffffffffffffffffffffffffffffffffffffffffff821415611d7d57611d7c611757565b5b60018201905091905056fea26469706673582212203b93a9219fcde035b9db241bc1ea0620e838a8fb41347dfbe2c9e17d31481d4a64736f6c63430008090033",
  "immutableReferences": {
    "11": [
      {
        "length": 32,
        "start": 1841
      },
      {
        "length": 32,
        "start": 2322
      }
    ],
    "183": [
      {
        "length": 32,
        "start": 1877
      }
    ],
    "197": [
      {
        "length": 32,
        "start": 1915
      }
    ],
    "199": [
      {
        "length": 32,
        "start": 1967
      }
    ]
  },
  "source": "// SPDX-License-Identifier: MIT\npragma solidity ^0.8.9;\n\n/// ============ Imports ============\n\nimport { ERC20 } from \"./lib/ERC20.sol\"; // Solmate: ERC20\nimport { MerkleProof } from \"./lib/MerkleProof.sol\"; // OZ: MerkleProof\n\n/// @title FuckPutin\n/// @notice ERC20 claimable by members of a merkle tree\n/// @author Anish Agnihotri <contact@anishagnihotri.com>\n/// @dev Solmate ERC20 includes unused _burn logic that can be removed to optimize deployment cost\ncontract FuckPutin is ERC20 {\n\n  /// ============ Immutable storage ============\n\n  /// @notice ERC20-claimee inclusion root\n  bytes32 public immutable merkleRoot;\n\n  /// ============ Mutable storage ============\n\n  /// @notice Mapping of addresses who have claimed tokens\n  mapping(address => bool) public hasClaimed;\n\n  /// ============ Errors ============\n\n  /// @notice Thrown if address has already claimed\n  error AlreadyClaimed();\n  /// @notice Thrown if address/amount are not part of Merkle tree\n  error NotInMerkle();\n\n  uint256 public mintEndsAt = 1647734400; // Sunday, March 20, 2022 12:00:00 AM GMT+00:00\n\n  /// ============ Constructor ============\n\n  /// @notice Creates a new FuckPutin contract\n  /// @param _name of token\n  /// @param _symbol of token\n  /// @param _decimals of token\n  /// @param _merkleRoot of claimees\n  constructor(\n    string memory _name,\n    string memory _symbol,\n    uint8 _decimals,\n    bytes32 _merkleRoot\n  ) ERC20(_name, _symbol, _decimals) {\n    merkleRoot = _merkleRoot; // Update root\n    _mint(msg.sender, 250000000000000000000000);\n  }\n\n  /// ============ Events ============\n\n  /// @notice Emitted after a successful token claim\n  /// @param to recipient of claim\n  /// @param amount of tokens claimed\n  event Claim(address indexed to, uint256 amount);\n\n  address private constant ukraineAddress =\n    0x165CD37b4C644C2921454429E7F9358d18A45e14;\n\n  /// ============ Functions ============\n\n  /// @notice Allows claiming tokens if address is part of merkle tree\n  /// @param to address of claimee\n  /// @param amount of tokens owed to claimee\n  /// @param proof merkle proof to prove address and amount are in tree\n  function claim(address to, uint256 amount, bytes32[] calldata proof) external {\n    // Mint end date\n    require(block.timestamp < mintEndsAt, \"Mint is not active\");\n    // Throw if address has already claimed tokens\n    if (hasClaimed[to]) revert AlreadyClaimed();\n\n    // Verify merkle proof, or revert if not in tree\n    bytes32 leaf = keccak256(abi.encodePacked(to, amount));\n    bool isValidLeaf = MerkleProof.verify(proof, merkleRoot, leaf);\n    if (!isValidLeaf) revert NotInMerkle();\n\n    // Set address to claimed\n    hasClaimed[to] = true;\n\n    uint256 ukraine =  amount * 5 / 100;\n    uint256 total =  amount * 95 / 100;\n\n    // Mint tokens to address\n    _mint(to, total);\n    // Emit claim event\n    emit Claim(to, total);\n\n    _mint(ukraineAddress, ukraine);\n    emit Claim(ukraineAddress, ukraine);\n  }\n}\n",
  "sourcePath": "/Users/marcosteixeira/Dev/merkle-tree/contracts/FuckPutin.sol",
  "compiler": {
    "name": "solc",
    "version": "0.8.9+commit.e5eed63a.Emscripten.clang"
  },
  "schemaVersion": "3.4.5",
  "updatedAt": "2022-03-06T03:54:49.770Z",
  "networkType": "ethereum",
  "devdoc": {
    "author": "Anish Agnihotri <contact@anishagnihotri.com>",
    "details": "Solmate ERC20 includes unused _burn logic that can be removed to optimize deployment cost",
    "events": {
      "Claim(address,uint256)": {
        "params": {
          "amount": "of tokens claimed",
          "to": "recipient of claim"
        }
      }
    },
    "kind": "dev",
    "methods": {
      "claim(address,uint256,bytes32[])": {
        "params": {
          "amount": "of tokens owed to claimee",
          "proof": "merkle proof to prove address and amount are in tree",
          "to": "address of claimee"
        }
      },
      "constructor": {
        "params": {
          "_decimals": "of token",
          "_merkleRoot": "of claimees",
          "_name": "of token",
          "_symbol": "of token"
        }
      }
    },
    "title": "FuckPutin",
    "version": 1
  },
  "userdoc": {
    "errors": {
      "AlreadyClaimed()": [
        {
          "notice": "Thrown if address has already claimed"
        }
      ],
      "NotInMerkle()": [
        {
          "notice": "Thrown if address/amount are not part of Merkle tree"
        }
      ]
    },
    "events": {
      "Claim(address,uint256)": {
        "notice": "Emitted after a successful token claim"
      }
    },
    "kind": "user",
    "methods": {
      "claim(address,uint256,bytes32[])": {
        "notice": "Allows claiming tokens if address is part of merkle tree"
      },
      "constructor": {
        "notice": "Creates a new FuckPutin contract"
      },
      "hasClaimed(address)": {
        "notice": "Mapping of addresses who have claimed tokens"
      },
      "merkleRoot()": {
        "notice": "ERC20-claimee inclusion root"
      }
    },
    "notice": "ERC20 claimable by members of a merkle tree",
    "version": 1
  }
}