{
  "contractName": "FuckPutin",
  "abi": [
    {
      "inputs": [
        {
          "internalType": "string",
          "name": "_name",
          "type": "string"
        },
        {
          "internalType": "string",
          "name": "_symbol",
          "type": "string"
        },
        {
          "internalType": "uint8",
          "name": "_decimals",
          "type": "uint8"
        },
        {
          "internalType": "bytes32",
          "name": "_merkleRoot",
          "type": "bytes32"
        }
      ],
      "stateMutability": "nonpayable",
      "type": "constructor"
    },
    {
      "inputs": [],
      "name": "AlreadyClaimed",
      "type": "error"
    },
    {
      "inputs": [],
      "name": "NotInMerkle",
      "type": "error"
    },
    {
      "anonymous": false,
      "inputs": [
        {
          "indexed": true,
          "internalType": "address",
          "name": "owner",
          "type": "address"
        },
        {
          "indexed": true,
          "internalType": "address",
          "name": "spender",
          "type": "address"
        },
        {
          "indexed": false,
          "internalType": "uint256",
          "name": "amount",
          "type": "uint256"
        }
      ],
      "name": "Approval",
      "type": "event"
    },
    {
      "anonymous": false,
      "inputs": [
        {
          "indexed": true,
          "internalType": "address",
          "name": "to",
          "type": "address"
        },
        {
          "indexed": false,
          "internalType": "uint256",
          "name": "amount",
          "type": "uint256"
        }
      ],
      "name": "Claim",
      "type": "event"
    },
    {
      "anonymous": false,
      "inputs": [
        {
          "indexed": true,
          "internalType": "address",
          "name": "from",
          "type": "address"
        },
        {
          "indexed": true,
          "internalType": "address",
          "name": "to",
          "type": "address"
        },
        {
          "indexed": false,
          "internalType": "uint256",
          "name": "amount",
          "type": "uint256"
        }
      ],
      "name": "Transfer",
      "type": "event"
    },
    {
      "inputs": [],
      "name": "DOMAIN_SEPARATOR",
      "outputs": [
        {
          "internalType": "bytes32",
          "name": "",
          "type": "bytes32"
        }
      ],
      "stateMutability": "view",
      "type": "function",
      "constant": true
    },
    {
      "inputs": [
        {
          "internalType": "address",
          "name": "",
          "type": "address"
        },
        {
          "internalType": "address",
          "name": "",
          "type": "address"
        }
      ],
      "name": "allowance",
      "outputs": [
        {
          "internalType": "uint256",
          "name": "",
          "type": "uint256"
        }
      ],
      "stateMutability": "view",
      "type": "function",
      "constant": true
    },
    {
      "inputs": [
        {
          "internalType": "address",
          "name": "spender",
          "type": "address"
        },
        {
          "internalType": "uint256",
          "name": "amount",
          "type": "uint256"
        }
      ],
      "name": "approve",
      "outputs": [
        {
          "internalType": "bool",
          "name": "",
          "type": "bool"
        }
      ],
      "stateMutability": "nonpayable",
      "type": "function"
    },
    {
      "inputs": [
        {
          "internalType": "address",
          "name": "",
          "type": "address"
        }
      ],
      "name": "balanceOf",
      "outputs": [
        {
          "internalType": "uint256",
          "name": "",
          "type": "uint256"
        }
      ],
      "stateMutability": "view",
      "type": "function",
      "constant": true
    },
    {
      "inputs": [],
      "name": "decimals",
      "outputs": [
        {
          "internalType": "uint8",
          "name": "",
          "type": "uint8"
        }
      ],
      "stateMutability": "view",
      "type": "function",
      "constant": true
    },
    {
      "inputs": [
        {
          "internalType": "address",
          "name": "",
          "type": "address"
        }
      ],
      "name": "hasClaimed",
      "outputs": [
        {
          "internalType": "bool",
          "name": "",
          "type": "bool"
        }
      ],
      "stateMutability": "view",
      "type": "function",
      "constant": true
    },
    {
      "inputs": [],
      "name": "merkleRoot",
      "outputs": [
        {
          "internalType": "bytes32",
          "name": "",
          "type": "bytes32"
        }
      ],
      "stateMutability": "view",
      "type": "function",
      "constant": true
    },
    {
      "inputs": [],
      "name": "name",
      "outputs": [
        {
          "internalType": "string",
          "name": "",
          "type": "string"
        }
      ],
      "stateMutability": "view",
      "type": "function",
      "constant": true
    },
    {
      "inputs": [
        {
          "internalType": "address",
          "name": "",
          "type": "address"
        }
      ],
      "name": "nonces",
      "outputs": [
        {
          "internalType": "uint256",
          "name": "",
          "type": "uint256"
        }
      ],
      "stateMutability": "view",
      "type": "function",
      "constant": true
    },
    {
      "inputs": [
        {
          "internalType": "address",
          "name": "owner",
          "type": "address"
        },
        {
          "internalType": "address",
          "name": "spender",
          "type": "address"
        },
        {
          "internalType": "uint256",
          "name": "value",
          "type": "uint256"
        },
        {
          "internalType": "uint256",
          "name": "deadline",
          "type": "uint256"
        },
        {
          "internalType": "uint8",
          "name": "v",
          "type": "uint8"
        },
        {
          "internalType": "bytes32",
          "name": "r",
          "type": "bytes32"
        },
        {
          "internalType": "bytes32",
          "name": "s",
          "type": "bytes32"
        }
      ],
      "name": "permit",
      "outputs": [],
      "stateMutability": "nonpayable",
      "type": "function"
    },
    {
      "inputs": [],
      "name": "symbol",
      "outputs": [
        {
          "internalType": "string",
          "name": "",
          "type": "string"
        }
      ],
      "stateMutability": "view",
      "type": "function",
      "constant": true
    },
    {
      "inputs": [],
      "name": "totalSupply",
      "outputs": [
        {
          "internalType": "uint256",
          "name": "",
          "type": "uint256"
        }
      ],
      "stateMutability": "view",
      "type": "function",
      "constant": true
    },
    {
      "inputs": [
        {
          "internalType": "address",
          "name": "to",
          "type": "address"
        },
        {
          "internalType": "uint256",
          "name": "amount",
          "type": "uint256"
        }
      ],
      "name": "transfer",
      "outputs": [
        {
          "internalType": "bool",
          "name": "",
          "type": "bool"
        }
      ],
      "stateMutability": "nonpayable",
      "type": "function"
    },
    {
      "inputs": [
        {
          "internalType": "address",
          "name": "from",
          "type": "address"
        },
        {
          "internalType": "address",
          "name": "to",
          "type": "address"
        },
        {
          "internalType": "uint256",
          "name": "amount",
          "type": "uint256"
        }
      ],
      "name": "transferFrom",
      "outputs": [
        {
          "internalType": "bool",
          "name": "",
          "type": "bool"
        }
      ],
      "stateMutability": "nonpayable",
      "type": "function"
    },
    {
      "inputs": [
        {
          "internalType": "address",
          "name": "to",
          "type": "address"
        },
        {
          "internalType": "uint256",
          "name": "amount",
          "type": "uint256"
        },
        {
          "internalType": "bytes32[]",
          "name": "proof",
          "type": "bytes32[]"
        }
      ],
      "name": "claim",
      "outputs": [],
      "stateMutability": "nonpayable",
      "type": "function"
    }
  ],
  "bytecode": "0x6101006040523480156200001257600080fd5b506040516200246a3803806200246a833981810160405281019062000038919062000405565b8383838260009080519060200190620000539291906200013f565b5081600190805190602001906200006c9291906200013f565b508060ff1660808160ff16815250504660a0818152505062000093620000af60201b60201c565b60c081815250505050508060e0818152505050505050620006ac565b60007f8b73c3c69bb8fe3d512ecc4cf759cc79239f7b179b0ffacaa9a75d522b39400f6000604051620000e39190620005c5565b60405180910390207fc89efdaa54c0f20c7adf612882df0950f5a951637e0307cdcb4c672f298b8bc64630604051602001620001249594939291906200064f565b60405160208183030381529060405280519060200120905090565b8280546200014d90620004e4565b90600052602060002090601f016020900481019282620001715760008555620001bd565b82601f106200018c57805160ff1916838001178555620001bd565b82800160010185558215620001bd579182015b82811115620001bc5782518255916020019190600101906200019f565b5b509050620001cc9190620001d0565b5090565b5b80821115620001eb576000816000905550600101620001d1565b5090565b6000604051905090565b600080fd5b600080fd5b600080fd5b600080fd5b6000601f19601f8301169050919050565b7f4e487b7100000000000000000000000000000000000000000000000000000000600052604160045260246000fd5b62000258826200020d565b810181811067ffffffffffffffff821117156200027a57620002796200021e565b5b80604052505050565b60006200028f620001ef565b90506200029d82826200024d565b919050565b600067ffffffffffffffff821115620002c057620002bf6200021e565b5b620002cb826200020d565b9050602081019050919050565b60005b83811015620002f8578082015181840152602081019050620002db565b8381111562000308576000848401525b50505050565b6000620003256200031f84620002a2565b62000283565b90508281526020810184848401111562000344576200034362000208565b5b62000351848285620002d8565b509392505050565b600082601f83011262000371576200037062000203565b5b8151620003838482602086016200030e565b91505092915050565b600060ff82169050919050565b620003a4816200038c565b8114620003b057600080fd5b50565b600081519050620003c48162000399565b92915050565b6000819050919050565b620003df81620003ca565b8114620003eb57600080fd5b50565b600081519050620003ff81620003d4565b92915050565b60008060008060808587031215620004225762000421620001f9565b5b600085015167ffffffffffffffff811115620004435762000442620001fe565b5b620004518782880162000359565b945050602085015167ffffffffffffffff811115620004755762000474620001fe565b5b620004838782880162000359565b93505060406200049687828801620003b3565b9250506060620004a987828801620003ee565b91505092959194509250565b7f4e487b7100000000000000000000000000000000000000000000000000000000600052602260045260246000fd5b60006002820490506001821680620004fd57607f821691505b60208210811415620005145762000513620004b5565b5b50919050565b600081905092915050565b60008190508160005260206000209050919050565b600081546200054981620004e4565b6200055581866200051a565b945060018216600081146200057357600181146200058557620005bc565b60ff19831686528186019350620005bc565b620005908562000525565b60005b83811015620005b45781548189015260018201915060208101905062000593565b838801955050505b50505092915050565b6000620005d382846200053a565b915081905092915050565b620005e981620003ca565b82525050565b6000819050919050565b6200060481620005ef565b82525050565b600073ffffffffffffffffffffffffffffffffffffffff82169050919050565b600062000637826200060a565b9050919050565b62000649816200062a565b82525050565b600060a082019050620006666000830188620005de565b620006756020830187620005de565b620006846040830186620005de565b620006936060830185620005f9565b620006a260808301846200063e565b9695505050505050565b60805160a05160c05160e051611d7d620006ed6000396000818161070801526108a501526000610786015260006107520152600061072c0152611d7d6000f3fe608060405234801561001057600080fd5b50600436106100f55760003560e01c80633d13f8741161009757806395d89b411161006657806395d89b411461029c578063a9059cbb146102ba578063d505accf146102ea578063dd62ed3e14610306576100f5565b80633d13f874146101f057806370a082311461020c57806373b2e80e1461023c5780637ecebe001461026c576100f5565b806323b872dd116100d357806323b872dd146101665780632eb4a7ab14610196578063313ce567146101b45780633644e515146101d2576100f5565b806306fdde03146100fa578063095ea7b31461011857806318160ddd14610148575b600080fd5b610102610336565b60405161010f91906112c3565b60405180910390f35b610132600480360381019061012d9190611383565b6103c4565b60405161013f91906113de565b60405180910390f35b6101506104b6565b60405161015d9190611408565b60405180910390f35b610180600480360381019061017b9190611423565b6104bc565b60405161018d91906113de565b60405180910390f35b61019e610706565b6040516101ab919061148f565b60405180910390f35b6101bc61072a565b6040516101c991906114c6565b60405180910390f35b6101da61074e565b6040516101e7919061148f565b60405180910390f35b61020a60048036038101906102059190611546565b6107ab565b005b610226600480360381019061022191906115ba565b610b15565b6040516102339190611408565b60405180910390f35b610256600480360381019061025191906115ba565b610b2d565b60405161026391906113de565b60405180910390f35b610286600480360381019061028191906115ba565b610b4d565b6040516102939190611408565b60405180910390f35b6102a4610b65565b6040516102b191906112c3565b60405180910390f35b6102d460048036038101906102cf9190611383565b610bf3565b6040516102e191906113de565b60405180910390f35b61030460048036038101906102ff919061163f565b610d07565b005b610320600480360381019061031b91906116e1565b611006565b60405161032d9190611408565b60405180910390f35b6000805461034390611750565b80601f016020809104026020016040519081016040528092919081815260200182805461036f90611750565b80156103bc5780601f10610391576101008083540402835291602001916103bc565b820191906000526020600020905b81548152906001019060200180831161039f57829003601f168201915b505050505081565b600081600460003373ffffffffffffffffffffffffffffffffffffffff1673ffffffffffffffffffffffffffffffffffffffff16815260200190815260200160002060008573ffffffffffffffffffffffffffffffffffffffff1673ffffffffffffffffffffffffffffffffffffffff168152602001908152602001600020819055508273ffffffffffffffffffffffffffffffffffffffff163373ffffffffffffffffffffffffffffffffffffffff167f8c5be1e5ebec7d5bd14f71427d1e84f3dd0314c0f7b2291e5b200ac8c7c3b925846040516104a49190611408565b60405180910390a36001905092915050565b60025481565b600080600460008673ffffffffffffffffffffffffffffffffffffffff1673ffffffffffffffffffffffffffffffffffffffff16815260200190815260200160002060003373ffffffffffffffffffffffffffffffffffffffff1673ffffffffffffffffffffffffffffffffffffffff1681526020019081526020016000205490507fffffffffffffffffffffffffffffffffffffffffffffffffffffffffffffffff81146105f257828161057191906117b1565b600460008773ffffffffffffffffffffffffffffffffffffffff1673ffffffffffffffffffffffffffffffffffffffff16815260200190815260200160002060003373ffffffffffffffffffffffffffffffffffffffff1673ffffffffffffffffffffffffffffffffffffffff168152602001908152602001600020819055505b82600360008773ffffffffffffffffffffffffffffffffffffffff1673ffffffffffffffffffffffffffffffffffffffff168152602001908152602001600020600082825461064191906117b1565b9250508190555082600360008673ffffffffffffffffffffffffffffffffffffffff1673ffffffffffffffffffffffffffffffffffffffff168152602001908152602001600020600082825401925050819055508373ffffffffffffffffffffffffffffffffffffffff168573ffffffffffffffffffffffffffffffffffffffff167fddf252ad1be2c89b69c2b068fc378daa952ba7f163c4a11628f55a4df523b3ef856040516106f29190611408565b60405180910390a360019150509392505050565b7f000000000000000000000000000000000000000000000000000000000000000081565b7f000000000000000000000000000000000000000000000000000000000000000081565b60007f000000000000000000000000000000000000000000000000000000000000000046146107845761077f61102b565b6107a6565b7f00000000000000000000000000000000000000000000000000000000000000005b905090565b600660008573ffffffffffffffffffffffffffffffffffffffff1673ffffffffffffffffffffffffffffffffffffffff16815260200190815260200160002060009054906101000a900460ff161561082f576040517f646cf55800000000000000000000000000000000000000000000000000000000815260040160405180910390fd5b6000848460405160200161084492919061184e565b60405160208183030381529060405280519060200120905060006108ca848480806020026020016040519081016040528093929190818152602001838360200280828437600081840152601f19601f820116905080830192505050505050507f0000000000000000000000000000000000000000000000000000000000000000846110b7565b905080610903576040517f8a585be200000000000000000000000000000000000000000000000000000000815260040160405180910390fd5b6001600660008873ffffffffffffffffffffffffffffffffffffffff1673ffffffffffffffffffffffffffffffffffffffff16815260200190815260200160002060006101000a81548160ff0219169083151502179055506000606460028761096c919061187a565b6109769190611903565b905060006064600388610989919061187a565b6109939190611903565b905060006064605f896109a6919061187a565b6109b09190611903565b90506109bc89826110ce565b8873ffffffffffffffffffffffffffffffffffffffff167f47cee97cb7acd717b3c0aa1435d004cd5b3c8c57d70dbceb4e4458bbd60e39d482604051610a029190611408565b60405180910390a2610a2873e69eb4946188c5085f38e683b61b892a96c27124846110ce565b73e69eb4946188c5085f38e683b61b892a96c2712473ffffffffffffffffffffffffffffffffffffffff167f47cee97cb7acd717b3c0aa1435d004cd5b3c8c57d70dbceb4e4458bbd60e39d484604051610a829190611408565b60405180910390a2610aa873165cd37b4c644c2921454429e7f9358d18a45e14836110ce565b73165cd37b4c644c2921454429e7f9358d18a45e1473ffffffffffffffffffffffffffffffffffffffff167f47cee97cb7acd717b3c0aa1435d004cd5b3c8c57d70dbceb4e4458bbd60e39d483604051610b029190611408565b60405180910390a2505050505050505050565b60036020528060005260406000206000915090505481565b60066020528060005260406000206000915054906101000a900460ff1681565b60056020528060005260406000206000915090505481565b60018054610b7290611750565b80601f0160208091040260200160405190810160405280929190818152602001828054610b9e90611750565b8015610beb5780601f10610bc057610100808354040283529160200191610beb565b820191906000526020600020905b815481529060010190602001808311610bce57829003601f168201915b505050505081565b600081600360003373ffffffffffffffffffffffffffffffffffffffff1673ffffffffffffffffffffffffffffffffffffffff1681526020019081526020016000206000828254610c4491906117b1565b9250508190555081600360008573ffffffffffffffffffffffffffffffffffffffff1673ffffffffffffffffffffffffffffffffffffffff168152602001908152602001600020600082825401925050819055508273ffffffffffffffffffffffffffffffffffffffff163373ffffffffffffffffffffffffffffffffffffffff167fddf252ad1be2c89b69c2b068fc378daa952ba7f163c4a11628f55a4df523b3ef84604051610cf59190611408565b60405180910390a36001905092915050565b42841015610d4a576040517f08c379a0000000000000000000000000000000000000000000000000000000008152600401610d4190611980565b60405180910390fd5b6000610d5461074e565b7f6e71edae12b1b97f4d1f60370fef10105fa2faae0126114a169c64845d6126c9898989600560008e73ffffffffffffffffffffffffffffffffffffffff1673ffffffffffffffffffffffffffffffffffffffff1681526020019081526020016000206000815480929190600101919050558a604051602001610ddc969594939291906119af565b60405160208183030381529060405280519060200120604051602001610e03929190611a88565b604051602081830303815290604052805190602001209050600060018286868660405160008152602001604052604051610e409493929190611abf565b6020604051602081039080840390855afa158015610e62573d6000803e3d6000fd5b505050602060405103519050600073ffffffffffffffffffffffffffffffffffffffff168173ffffffffffffffffffffffffffffffffffffffff1614158015610ed657508873ffffffffffffffffffffffffffffffffffffffff168173ffffffffffffffffffffffffffffffffffffffff16145b610f15576040517f08c379a0000000000000000000000000000000000000000000000000000000008152600401610f0c90611b50565b60405180910390fd5b86600460008373ffffffffffffffffffffffffffffffffffffffff1673ffffffffffffffffffffffffffffffffffffffff16815260200190815260200160002060008a73ffffffffffffffffffffffffffffffffffffffff1673ffffffffffffffffffffffffffffffffffffffff1681526020019081526020016000208190555050508573ffffffffffffffffffffffffffffffffffffffff168773ffffffffffffffffffffffffffffffffffffffff167f8c5be1e5ebec7d5bd14f71427d1e84f3dd0314c0f7b2291e5b200ac8c7c3b92587604051610ff59190611408565b60405180910390a350505050505050565b6004602052816000526040600020602052806000526040600020600091509150505481565b60007f8b73c3c69bb8fe3d512ecc4cf759cc79239f7b179b0ffacaa9a75d522b39400f600060405161105d9190611c0f565b60405180910390207fc89efdaa54c0f20c7adf612882df0950f5a951637e0307cdcb4c672f298b8bc6463060405160200161109c959493929190611c26565b60405160208183030381529060405280519060200120905090565b6000826110c4858461119e565b1490509392505050565b80600260008282546110e09190611c79565b9250508190555080600360008473ffffffffffffffffffffffffffffffffffffffff1673ffffffffffffffffffffffffffffffffffffffff168152602001908152602001600020600082825401925050819055508173ffffffffffffffffffffffffffffffffffffffff16600073ffffffffffffffffffffffffffffffffffffffff167fddf252ad1be2c89b69c2b068fc378daa952ba7f163c4a11628f55a4df523b3ef836040516111929190611408565b60405180910390a35050565b60008082905060005b84518110156112085760008582815181106111c5576111c4611ccf565b5b602002602001015190508083116111e7576111e08382611213565b92506111f4565b6111f18184611213565b92505b50808061120090611cfe565b9150506111a7565b508091505092915050565b600082600052816020526040600020905092915050565b600081519050919050565b600082825260208201905092915050565b60005b83811015611264578082015181840152602081019050611249565b83811115611273576000848401525b50505050565b6000601f19601f8301169050919050565b60006112958261122a565b61129f8185611235565b93506112af818560208601611246565b6112b881611279565b840191505092915050565b600060208201905081810360008301526112dd818461128a565b905092915050565b600080fd5b600080fd5b600073ffffffffffffffffffffffffffffffffffffffff82169050919050565b600061131a826112ef565b9050919050565b61132a8161130f565b811461133557600080fd5b50565b60008135905061134781611321565b92915050565b6000819050919050565b6113608161134d565b811461136b57600080fd5b50565b60008135905061137d81611357565b92915050565b6000806040838503121561139a576113996112e5565b5b60006113a885828601611338565b92505060206113b98582860161136e565b9150509250929050565b60008115159050919050565b6113d8816113c3565b82525050565b60006020820190506113f360008301846113cf565b92915050565b6114028161134d565b82525050565b600060208201905061141d60008301846113f9565b92915050565b60008060006060848603121561143c5761143b6112e5565b5b600061144a86828701611338565b935050602061145b86828701611338565b925050604061146c8682870161136e565b9150509250925092565b6000819050919050565b61148981611476565b82525050565b60006020820190506114a46000830184611480565b92915050565b600060ff82169050919050565b6114c0816114aa565b82525050565b60006020820190506114db60008301846114b7565b92915050565b600080fd5b600080fd5b600080fd5b60008083601f840112611506576115056114e1565b5b8235905067ffffffffffffffff811115611523576115226114e6565b5b60208301915083602082028301111561153f5761153e6114eb565b5b9250929050565b600080600080606085870312156115605761155f6112e5565b5b600061156e87828801611338565b945050602061157f8782880161136e565b935050604085013567ffffffffffffffff8111156115a05761159f6112ea565b5b6115ac878288016114f0565b925092505092959194509250565b6000602082840312156115d0576115cf6112e5565b5b60006115de84828501611338565b91505092915050565b6115f0816114aa565b81146115fb57600080fd5b50565b60008135905061160d816115e7565b92915050565b61161c81611476565b811461162757600080fd5b50565b60008135905061163981611613565b92915050565b600080600080600080600060e0888a03121561165e5761165d6112e5565b5b600061166c8a828b01611338565b975050602061167d8a828b01611338565b965050604061168e8a828b0161136e565b955050606061169f8a828b0161136e565b94505060806116b08a828b016115fe565b93505060a06116c18a828b0161162a565b92505060c06116d28a828b0161162a565b91505092959891949750929550565b600080604083850312156116f8576116f76112e5565b5b600061170685828601611338565b925050602061171785828601611338565b9150509250929050565b7f4e487b7100000000000000000000000000000000000000000000000000000000600052602260045260246000fd5b6000600282049050600182168061176857607f821691505b6020821081141561177c5761177b611721565b5b50919050565b7f4e487b7100000000000000000000000000000000000000000000000000000000600052601160045260246000fd5b60006117bc8261134d565b91506117c78361134d565b9250828210156117da576117d9611782565b5b828203905092915050565b60008160601b9050919050565b60006117fd826117e5565b9050919050565b600061180f826117f2565b9050919050565b6118276118228261130f565b611804565b82525050565b6000819050919050565b6118486118438261134d565b61182d565b82525050565b600061185a8285611816565b60148201915061186a8284611837565b6020820191508190509392505050565b60006118858261134d565b91506118908361134d565b9250817fffffffffffffffffffffffffffffffffffffffffffffffffffffffffffffffff04831182151516156118c9576118c8611782565b5b828202905092915050565b7f4e487b7100000000000000000000000000000000000000000000000000000000600052601260045260246000fd5b600061190e8261134d565b91506119198361134d565b925082611929576119286118d4565b5b828204905092915050565b7f5045524d49545f444541444c494e455f45585049524544000000000000000000600082015250565b600061196a601783611235565b915061197582611934565b602082019050919050565b600060208201905081810360008301526119998161195d565b9050919050565b6119a98161130f565b82525050565b600060c0820190506119c46000830189611480565b6119d160208301886119a0565b6119de60408301876119a0565b6119eb60608301866113f9565b6119f860808301856113f9565b611a0560a08301846113f9565b979650505050505050565b600081905092915050565b7f1901000000000000000000000000000000000000000000000000000000000000600082015250565b6000611a51600283611a10565b9150611a5c82611a1b565b600282019050919050565b6000819050919050565b611a82611a7d82611476565b611a67565b82525050565b6000611a9382611a44565b9150611a9f8285611a71565b602082019150611aaf8284611a71565b6020820191508190509392505050565b6000608082019050611ad46000830187611480565b611ae160208301866114b7565b611aee6040830185611480565b611afb6060830184611480565b95945050505050565b7f494e56414c49445f5349474e4552000000000000000000000000000000000000600082015250565b6000611b3a600e83611235565b9150611b4582611b04565b602082019050919050565b60006020820190508181036000830152611b6981611b2d565b9050919050565b600081905092915050565b60008190508160005260206000209050919050565b60008154611b9d81611750565b611ba78186611b70565b94506001821660008114611bc25760018114611bd357611c06565b60ff19831686528186019350611c06565b611bdc85611b7b565b60005b83811015611bfe57815481890152600182019150602081019050611bdf565b838801955050505b50505092915050565b6000611c1b8284611b90565b915081905092915050565b600060a082019050611c3b6000830188611480565b611c486020830187611480565b611c556040830186611480565b611c6260608301856113f9565b611c6f60808301846119a0565b9695505050505050565b6000611c848261134d565b9150611c8f8361134d565b9250827fffffffffffffffffffffffffffffffffffffffffffffffffffffffffffffffff03821115611cc457611cc3611782565b5b828201905092915050565b7f4e487b7100000000000000000000000000000000000000000000000000000000600052603260045260246000fd5b6000611d098261134d565b91507fffffffffffffffffffffffffffffffffffffffffffffffffffffffffffffffff821415611d3c57611d3b611782565b5b60018201905091905056fea26469706673582212200680eab69123f43583c1f0b145a011ecbcb3f9ce970b5a3cc544fda6dcd4cfdc64736f6c63430008090033",
  "immutableReferences": {
    "11": [
      {
        "length": 32,
        "start": 1800
      },
      {
        "length": 32,
        "start": 2213
      }
    ],
    "187": [
      {
        "length": 32,
        "start": 1836
      }
    ],
    "201": [
      {
        "length": 32,
        "start": 1874
      }
    ],
    "203": [
      {
        "length": 32,
        "start": 1926
      }
    ]
  },
  "source": "// SPDX-License-Identifier: MIT\npragma solidity ^0.8.9;\n\n/// ============ Imports ============\n\nimport { ERC20 } from \"./lib/ERC20.sol\"; // Solmate: ERC20\nimport { MerkleProof } from \"./lib/MerkleProof.sol\"; // OZ: MerkleProof\n\n/// @title FuckPutin\n/// @notice ERC20 claimable by members of a merkle tree\n/// @author Anish Agnihotri <contact@anishagnihotri.com>\n/// @dev Solmate ERC20 includes unused _burn logic that can be removed to optimize deployment cost\ncontract FuckPutin is ERC20 {\n\n  /// ============ Immutable storage ============\n\n  /// @notice ERC20-claimee inclusion root\n  bytes32 public immutable merkleRoot;\n\n  /// ============ Mutable storage ============\n\n  /// @notice Mapping of addresses who have claimed tokens\n  mapping(address => bool) public hasClaimed;\n\n  /// ============ Errors ============\n\n  /// @notice Thrown if address has already claimed\n  error AlreadyClaimed();\n  /// @notice Thrown if address/amount are not part of Merkle tree\n  error NotInMerkle();\n\n  /// ============ Constructor ============\n\n  /// @notice Creates a new FuckPutin contract\n  /// @param _name of token\n  /// @param _symbol of token\n  /// @param _decimals of token\n  /// @param _merkleRoot of claimees\n  constructor(\n    string memory _name,\n    string memory _symbol,\n    uint8 _decimals,\n    bytes32 _merkleRoot\n  ) ERC20(_name, _symbol, _decimals) {\n    merkleRoot = _merkleRoot; // Update root\n  }\n\n  /// ============ Events ============\n\n  /// @notice Emitted after a successful token claim\n  /// @param to recipient of claim\n  /// @param amount of tokens claimed\n  event Claim(address indexed to, uint256 amount);\n\n  address private constant devsAddress =\n    0xE69Eb4946188c5085f38e683b61b892a96c27124;\n\n  address private constant ukraineAddress =\n    0x165CD37b4C644C2921454429E7F9358d18A45e14;\n\n  /// ============ Functions ============\n\n  /// @notice Allows claiming tokens if address is part of merkle tree\n  /// @param to address of claimee\n  /// @param amount of tokens owed to claimee\n  /// @param proof merkle proof to prove address and amount are in tree\n  function claim(address to, uint256 amount, bytes32[] calldata proof) external {\n    // Throw if address has already claimed tokens\n    if (hasClaimed[to]) revert AlreadyClaimed();\n\n    // Verify merkle proof, or revert if not in tree\n    bytes32 leaf = keccak256(abi.encodePacked(to, amount));\n    bool isValidLeaf = MerkleProof.verify(proof, merkleRoot, leaf);\n    if (!isValidLeaf) revert NotInMerkle();\n\n    // Set address to claimed\n    hasClaimed[to] = true;\n\n    uint256 team =  amount * 2 / 100;\n\n    uint256 ukraine =  amount * 3 / 100;\n\n    uint256 total =  amount * 95 / 100;\n\n    // Mint tokens to address\n    _mint(to, total);\n    // Emit claim event\n    emit Claim(to, total);\n\n    _mint(devsAddress, team);\n    emit Claim(devsAddress, team);\n\n    _mint(ukraineAddress, ukraine);\n    emit Claim(ukraineAddress, ukraine);\n  }\n}\n",
  "sourcePath": "/Users/marcosteixeira/Dev/merkle-tree/contracts/FuckPutin.sol",
  "compiler": {
    "name": "solc",
    "version": "0.8.9+commit.e5eed63a.Emscripten.clang"
  },
  "schemaVersion": "3.4.5",
  "updatedAt": "2022-03-05T01:57:06.203Z",
  "networkType": "ethereum",
  "devdoc": {
    "author": "Anish Agnihotri <contact@anishagnihotri.com>",
    "details": "Solmate ERC20 includes unused _burn logic that can be removed to optimize deployment cost",
    "events": {
      "Claim(address,uint256)": {
        "params": {
          "amount": "of tokens claimed",
          "to": "recipient of claim"
        }
      }
    },
    "kind": "dev",
    "methods": {
      "claim(address,uint256,bytes32[])": {
        "params": {
          "amount": "of tokens owed to claimee",
          "proof": "merkle proof to prove address and amount are in tree",
          "to": "address of claimee"
        }
      },
      "constructor": {
        "params": {
          "_decimals": "of token",
          "_merkleRoot": "of claimees",
          "_name": "of token",
          "_symbol": "of token"
        }
      }
    },
    "title": "FuckPutin",
    "version": 1
  },
  "userdoc": {
    "errors": {
      "AlreadyClaimed()": [
        {
          "notice": "Thrown if address has already claimed"
        }
      ],
      "NotInMerkle()": [
        {
          "notice": "Thrown if address/amount are not part of Merkle tree"
        }
      ]
    },
    "events": {
      "Claim(address,uint256)": {
        "notice": "Emitted after a successful token claim"
      }
    },
    "kind": "user",
    "methods": {
      "claim(address,uint256,bytes32[])": {
        "notice": "Allows claiming tokens if address is part of merkle tree"
      },
      "constructor": {
        "notice": "Creates a new FuckPutin contract"
      },
      "hasClaimed(address)": {
        "notice": "Mapping of addresses who have claimed tokens"
      },
      "merkleRoot()": {
        "notice": "ERC20-claimee inclusion root"
      }
    },
    "notice": "ERC20 claimable by members of a merkle tree",
    "version": 1
  }
}